S01800004B657970616420496E746572666163652E73726563FD
S11300000C942A000C943F000C943F000C943F0085
S11300100C943F000C943F000C943F000C943F0060
S11300200C943F000C943F000C943F000C943F0050
S11300300C943F000C943F000C943F000C943F0040
S11300400C943F000C943F000C943F000C943F0030
S11300500C943F0011241FBECFE5D4E0DEBFCDBF1A
S113006010E0A0E6B0E0E4EFF2E002C005900D92EB
S1130070A43CB107D9F70E94E9000C9478010C94D0
S1130080000092B39E7F92BB92B39F70282F207F73
S1130090922B92BB92B3926092BBEFE1FEE4319754
S11300A0F1F700C0000092B39D7F92BBEFE1FEE444
S11300B03197F1F700C0000092B39E7F92BB22B348
S11300C0F0E18F9FC0011124922F9F70892B82BB76
S11300D082B3826082BB8FE19EE40197F1F700C096
S11300E0000082B38D7F82BBEFE1FEE43197F1F72C
S11300F000C00000089592B3916092BB92B39F70C8
S1130100282F207F922B92BB92B3926092BBEFE197
S1130110FEE43197F1F700C0000092B39D7F92BBDB
S1130120EFE1FEE43197F1F700C0000092B3916073
S113013092BB22B3F0E18F9FC0011124922F9F70D4
S1130140892B82BB82B3826082BB8FE19EE40197DC
S1130150F1F700C0000082B38D7F82BBEFE1FEE4C3
S11301603197F1F700C00000089583EF81BB2FEFB2
S113017082E597E0215080409040E1F700C0000004
S113018083E30E94410082E30E94410088E20E94CE
S113019041008CE00E94410081E00E9441008FEC0C
S11301A097E00197F1F700C0000086E00E9441004B
S11301B080E80E9441000895CF93DF93EC0103C0CF
S11301C00E947B00219688818111FACFDF91CF9123
S11301D008958FE08ABB84BB0E94B50081E08BBB8D
S11301E0CC9B09C085BB80E80E94410080E690E07A
S11301F00E94DC0017C0CD9B0AC082E085BB80E86A
S11302000E9441008BE690E00E94DC000BC0CE9B74
S113021009C083E085BB80E80E94410086E790E046
S11302200E94DC002FEF80E792E021508040904054
S1130230E1F700C0000082E08BBBCC9B0AC084E0E5
S113024085BB80E80E94410081E890E00E94DC00C8
S113025017C0CD9B0AC085E085BB80E80E944100A1
S11302608CE890E00E94DC000BC0CE9B09C086E0C5
S113027085BB80E80E94410087E990E00E94DC0091
S11302802FEF80E792E0215080409040E1F700C0DA
S1130290000084E08BBBCC9B0AC087E085BB80E870
S11302A00E94410082EA90E00E94DC0017C0CD9BCE
S11302B00AC088E085BB80E80E9441008DEA90E096
S11302C00E94DC000BC0CE9B09C089E085BB80E89E
S11302D00E94410088EB90E00E94DC002FEF80E751
S11302E092E0215080409040E1F700C0000076CFBA
S10702F0F894FFCFAC
S11302F4427574746F6E202D203100427574746FCE
S11303046E202D203200427574746F6E202D2033BC
S113031400427574746F6E202D2034004275747419
S11303246F6E202D203500427574746F6E202D205D
S11303343600427574746F6E202D20370042757434
S1130344746F6E202D203800427574746F6E202DE6
S10703542039000048
S9030000FC
