:100000000C942A000C9434000C9434000C943400AA
:100010000C9434000C9434000C9434000C94340090
:100020000C9434000C9434000C9434000C94340080
:100030000C9434000C9434000C9434000C94340070
:100040000C9434000C9434000C9434000C94340060
:100050000C94340011241FBECFE5D4E0DEBFCDBF29
:100060000E9436000C9464000C94000081E484BB70
:1000700081E085BB2FEF8DE399E4215080409040D3
:10008000E1F700C0000080E485BB2FEF8DE399E429
:10009000215080409040E1F700C0000081E485BB22
:1000A0002FEF8DE399E4215080409040E1F700C0AC
:1000B000000015BA2FEF8DE399E421508040904065
:0C00C000E1F700C00000D4CFF894FFCF9F
:00000001FF
