:100000000C942A000C9434000C9434000C943400AA
:100010000C9434000C9434000C9434000C94340090
:100020000C9434000C9434000C9434000C94340080
:100030000C9434000C9434000C9434000C94340070
:100040000C9434000C9434000C9434000C94340060
:100050000C94340011241FBECFE5D4E0DEBFCDBF29
:100060000E9436000C948F000C94000083EC84BB3B
:100070001ABA80E090E0C89907C00DC0EFECF7E035
:100080003197F1F700C00000C899F8CF873091058B
:1000900089F0019614C0C99907C011C0EFECF7E0D0
:1000A0003197F1F700C00000C999F8CF009729F007
:1000B000019705C080E090E002C087E090E00097E3
:1000C00019F422E425BBD7CF8130910519F422E041
:1000D00025BBD1CF8230910519F423E025BBCBCFCE
:1000E0008330910519F421E025BBC5CF84309105FB
:1000F00019F421E825BBBFCF8530910519F420E81C
:1001000025BBB9CF8630910519F420EC25BBB3CFC0
:100110008730910509F0AFCF20E425BBACCFF89430
:02012000FFCF0F
:00000001FF
