:100000000C942A000C943F000C943F000C943F0089
:100010000C943F000C943F000C943F000C943F0064
:100020000C943F000C943F000C943F000C943F0054
:100030000C943F000C943F000C943F000C943F0044
:100040000C943F000C943F000C943F000C943F0034
:100050000C943F0011241FBECFE5D4E0DEBFCDBF1E
:1000600010E0A0E6B0E0E8EFF1E002C005900D92EC
:10007000AA37B107D9F70E94E7000C94FA000C9454
:10008000000095B39E7F95BB95B39F70282F207F6E
:10009000922B95BB95B3926095BBEFE1FEE431974F
:1000A000F1F700C0000095B39D7F95BBEFE1FEE442
:1000B0003197F1F700C0000095B39E7F95BB25B343
:1000C000F0E18F9FC0011124922F9F70892B85BB77
:1000D00085B3826085BB8FE19EE40197F1F700C094
:1000E000000085B38D7F85BBEFE1FEE43197F1F72A
:1000F00000C00000089595B3916095BB95B39F70C3
:10010000282F207F922B95BB95B3926095BBEFE192
:10011000FEE43197F1F700C0000095B39D7F95BBD9
:10012000EFE1FEE43197F1F700C0000095B3916074
:1001300095BB25B3F0E18F9FC0011124922F9F70D2
:10014000892B85BB85B3826085BB8FE19EE40197D7
:10015000F1F700C0000085B38D7F85BBEFE1FEE4C1
:100160003197F1F700C0000008952FEF82E597E086
:10017000215080409040E1F700C0000083E30E94DE
:10018000410082E30E94410088E20E9441008EE02B
:100190000E94410081E00E9441008FEC97E00197AE
:1001A000F1F700C0000086E00E94410080E80E9454
:1001B00041000895CF93DF93EC0103C00E947B00C0
:1001C000219688818111FACFDF91CF91089583EF35
:1001D00084BB0E94B50080E80E94410080E690E068
:1001E0000E94DA0080EC0E9441008DE690E00E94BF
:0801F000DA00F1CFF894FFCF13
:1001F80047554E4A414E20474F59414C00414E4BBE
:0A020800495441205645524D410073
:00000001FF
