:100000000C942A000C9434000C9434000C943400AA
:100010000C9434000C9434000C9434000C94340090
:100020000C9434000C9434000C9434000C94340080
:100030000C9434000C9434000C9434000C94340070
:100040000C9434000C9434000C9434000C94340060
:100050000C94340011241FBECFE5D4E0DEBFCDBF29
:100060000E9436000C94CA000C9400008FEF8ABBEB
:1000700087BB81BB8FEC97E00197F1F700C00000D0
:1000800080E090E013C021E030E0082E02C0220F93
:10009000331F0A94E2F72BBB2FEF30E742E02150E9
:1000A00030404040E1F700C00000019683309105E8
:1000B00054F31BBA8FEC97E00197F1F700C00000F2
:1000C00080E090E013C021E030E0082E02C0220F53
:1000D000331F0A94E2F728BB2FEF30E742E02150AC
:1000E00030404040E1F700C00000019683309105A8
:1000F00054F318BA8FEC97E00197F1F700C00000B5
:1001000080E090E013C021E030E0082E02C0220F12
:10011000331F0A94E2F722BB2FEF30E742E0215071
:1001200030404040E1F700C0000001968330910567
:1001300054F312BA20E030E015C081E090E0022EC6
:1001400002C0880F991F0A94E2F788BB8BBB8FEF20
:1001500090E742E0815090404040E1F700C000004D
:100160002F5F3F4F2330310544F318BA8FEC97E0EF
:100170000197F1F700C000001BBA8FEC97E00197E0
:10018000F1F700C000008FEC97E00197F1F700C095
:08019000000070CFF894FFCFCE
:00000001FF
