:100000000C942A000C9434000C9434000C943400AA
:100010000C9434000C9434000C9434000C94340090
:100020000C9434000C9434000C9434000C94340080
:100030000C9434000C9434000C9434000C94340070
:100040000C9434000C9434000C9434000C94340060
:100050000C94340011241FBECFE5D4E0DEBFCDBF29
:100060000E9483000C9497010C94000095B39E7F2E
:1000700095BB82BB85B3826085BB8FE19EE401970F
:10008000F1F700C0000085B38D7F85BB8FE19EE452
:100090000197F1F700C00000089595B3916095BBFA
:1000A00082BB85B3826085BB8FE19EE40197F1F747
:1000B00000C0000085B38D7F85BB8FE19EE4019772
:1000C000F1F700C0000008952FEF82E597E021507E
:1000D00080409040E1F700C0000088E30E943600B5
:1000E0008EE00E94360081E00E9436008FEC97E09F
:1000F0000197F1F700C0000086E00E94360080E81A
:100100000E94360008958FEF81BB83E984BB1ABA41
:100110000E94640089B3813009F03FC085B38061DB
:1001200085BB80E80E9436008DE40E944D0081E886
:100130000E9436008FE40E944D0082E80E94360043
:1001400084E50E944D0083E80E9436008FE40E94FF
:100150004D0084E80E94360082E50E944D0085E84B
:100160000E9436008DE20E944D0086E80E94360013
:1001700081E30E944D0088E80E9436008FE40E94CF
:100180004D0089E80E9436008EE40E944D008AE806
:100190000E9436008FE50E944D0089B3843009F03B
:1001A0003FC085B38F7E85BB80E80E9436008DE41A
:1001B0000E944D0081E80E9436008FE40E944D00AD
:1001C00082E80E94360084E50E944D0083E80E9488
:1001D00036008FE40E944D0084E80E94360082E5DC
:1001E0000E944D0085E80E9436008DE20E944D007D
:1001F00086E80E94360081E30E944D0088E80E9454
:1002000036008FE40E944D0089E80E94360086E4A3
:100210000E944D008AE80E94360086E40E944D004C
:1002200089B3803109F03FC085B3806885BB80E821
:100230000E9436008DE40E944D0081E80E94360045
:100240008FE40E944D0082E80E94360084E50E94FF
:100250004D0083E80E9436008FE40E944D0084E840
:100260000E94360082E50E944D0085E80E9436001B
:100270008DE20E944D0086E80E94360082E30E94D3
:100280004D0088E80E9436008FE40E944D0089E806
:100290000E9436008EE40E944D008AE80E943600DB
:1002A0008FE50E944D0089B3803409F033CF85B3C8
:1002B0008F7785BB80E80E9436008DE40E944D0058
:1002C00081E80E9436008FE40E944D0082E80E947F
:1002D000360084E50E944D0083E80E9436008FE4DA
:1002E0000E944D0084E80E94360082E50E944D0085
:1002F00085E80E9436008DE20E944D0086E80E944B
:10030000360082E30E944D0088E80E9436008FE4A8
:100310000E944D0089E80E94360086E40E944D004C
:100320008AE80E94360086E40E944D00F3CEF894DD
:02033000FFCFFD
:00000001FF
