S02B0000496E7465726661636520537769746368206F6E20375365676D656E7420446973706C61792E7372651C
S11300000C942A000C943F000C943F000C943F0085
S11300100C943F000C943F000C943F000C943F0060
S11300200C943F000C943F000C943F000C943F0050
S11300300C943F000C943F000C943F000C943F0040
S11300400C943F000C943F000C943F000C943F0030
S11300500C943F0011241FBECFE5D4E0DEBFCDBF1A
S113006010E0A0E6B0E0EAE1F1E002C005900D92F4
S1130070AA36B107D9F70E9441000C948B000C9466
S11300800000CF93DF93CDB7DEB72A970FB6F8946D
S1130090DEBF0FBECDBF1ABA8FE784BB8AE0E0E6AD
S11300A0F0E0DE01119601900D928A95E1F720E0CF
S11300B030E089B3813079F44FEF82E597E0415025
S11300C080409040E1F700C0000029303105A9F0DC
S11300D02F5F3F4F17C089B38038A1F44FEF82E5FB
S11300E097E0415080409040E1F700C000002115A6
S11300F0310531F02150310905C020E030E002C063
S113010029E030E0E1E0F0E0EC0FFD1FE20FF31F27
S10D0110808185BBCECFF894FFCFA9
S10D011A3F065B4F666D7D077F6FA3
S9030000FC
