:100000000C942A000C943F000C943F000C943F0089
:100010000C943F000C943F000C943F000C943F0064
:100020000C943F000C943F000C943F000C943F0054
:100030000C943F000C943F000C943F000C943F0044
:100040000C943F000C943F000C943F000C943F0034
:100050000C943F0011241FBECFE5D4E0DEBFCDBF1E
:1000600010E0A0E6B0E0E2EBF1E002C005900D92F6
:10007000AA36B107D9F70E9441000C94D7000C941E
:100080000000CF93DF93CDB7DEB72A970FB6F89471
:10009000DEBF0FBECDBF8AE0E0E6F0E0DE011196E4
:1000A00001900D928A95E1F78FE784BB8FE081BBC9
:1000B00060E070E078C06230710589F4A330B1056A
:1000C00071F40530110559F42930310541F420E06F
:1000D00030E000E010E0A0E0B0E060E070E04EE072
:1000E00042BBE1E0F0E0EC0FFD1FE20FF31F4081A7
:1000F00045BBEFE1FEE43197F1F700C000004DE0B1
:1001000042BBE1E0F0E0EC0FFD1FE00FF11F40818A
:1001100045BBEFE1FEE43197F1F700C000004BE092
:1001200042BBE1E0F0E0EC0FFD1FEA0FFB1F408156
:1001300045BB45B3406845BBEFE1FEE43197F1F7BD
:1001400000C0000047E042BBE1E0F0E0EC0FFD1F23
:10015000E60FF71F408145BBEFE1FEE43197F1F771
:1001600000C00000019602C080E090E01816190659
:100170000CF0A1CF2F5F3F4F02C020E030E02A30CB
:10018000310594F30F5F1F4F02C000E010E006300E
:1001900011059CF3119602C0A0E0B0E0AA30B105B1
:1001A000A4F36F5F7F4F63307105B4F381CFF89490
:0201B000FFCF7F
:0A01B2003F065B4F666D7D077F6F0F
:00000001FF
