S0170000375365676D656E74204D61747269782E737265636E
S11300000C942A000C943F000C943F000C943F0085
S11300100C943F000C943F000C943F000C943F0060
S11300200C943F000C943F000C943F000C943F0050
S11300300C943F000C943F000C943F000C943F0040
S11300400C943F000C943F000C943F000C943F0030
S11300500C943F0011241FBECFE5D4E0DEBFCDBF1A
S113006010E0A0E6B0E0E4E8F1E002C005900D92F3
S1130070AA36B107D9F70E9441000C94C0000C9431
S11300800000CF93DF93CDB7DEB72A970FB6F8946D
S1130090DEBF0FBECDBF8AE0E0E6F0E0DE011196E0
S11300A001900D928A95E1F78FE784BB8FE081BBC5
S11300B0A0E0B0E061C02EE022BBE1E0F0E0EC0F94
S11300C0FD1FE40FF51F208125BBEFE1FEE431970E
S11300D0F1F700C000002DE022BBE1E0F0E0EC0FFE
S11300E0FD1FE60FF71F208125BBEFE1FEE43197EA
S11300F0F1F700C000002BE022BBE1E0F0E0EC0FE0
S1130100FD1FE00FF11F208125BBEFE1FEE43197D5
S1130110F1F700C0000027E022BBE1E0F0E0EC0FC3
S1130120FD1FEA0FFB1F208125BBEFE1FEE43197A1
S1130130F1F700C00000019602C080E090E0853035
S113014091050CF4B8CF4F5F5F4F02C040E050E020
S11301504A30510594F36F5F7F4F02C060E070E056
S11301606A3071059CF30F5F1F4F02C000E010E07E
S11301700A3011059CF31196AA30B105BCF398CF4F
S1070180F894FFCF1D
S10D01843F065B4F666D7D077F6F39
S9030000FC
