S01800004C43442028382D4269742D4D6F6465292E7372656392
S11300000C942A000C9434000C9434000C943400A6
S11300100C9434000C9434000C9434000C9434008C
S11300200C9434000C9434000C9434000C9434007C
S11300300C9434000C9434000C9434000C9434006C
S11300400C9434000C9434000C9434000C9434005C
S11300500C94340011241FBECFE5D4E0DEBFCDBF25
S11300600E947A000C9417010C94000015BA82BB0C
S113007082E085BB8FE19EE40197F1F700C00000A8
S113008015BA8FE19EE40197F1F700C000000895CE
S113009091E095BB82BB83E085BBEFE1FEE4319741
S11300A0F1F700C0000095BB8FE19EE40197F1F7E2
S11300B000C0000008952FEF82E597E021508040B2
S11300C09040E1F700C0000088E30E9436008EE013
S11300D00E94360081E00E9436008FEC97E0019781
S11300E0F1F700C0000086E00E94360080E80E941C
S11300F03600089583E084BB8FEF81BB0E945B00D0
S1130100C89B25C080E80E94360082E40E94480013
S113011085E50E94480084E50E94480084E50E9429
S113012048008FE40E9448008EE40E94480081E366
S11301300E94480080E20E9448008FE40E94480028
S11301408EE40E94480080E20E94480024C080E8B7
S11301500E94360082E40E94480085E50E9448001F
S113016084E50E94480084E50E9448008FE40E94D0
S113017048008EE40E94480081E30E94480080E227
S11301800E9448008FE40E94480086E40E944800D0
S113019086E40E944800CF9B25C080EC0E94360074
S11301A082E40E94480085E50E94480084E50E949C
S11301B0480084E50E9448008FE40E9448008EE4D1
S11301C00E94480082E30E94480080E20E944800A6
S11301D08FE40E9448008EE40E94480080E20E945E
S11301E048008ECF80EC0E94360082E40E944800D2
S11301F085E50E94480084E50E94480084E50E9449
S113020048008FE40E9448008EE40E94480082E384
S11302100E94480080E20E9448008FE40E94480047
S113022086E40E94480086E40E94480069CFF8945E
S1050230FFCFFA
S9030000FC
