:100000000C942A000C9434000C9434000C943400AA
:100010000C9434000C9434000C9434000C94340090
:100020000C9434000C9434000C9434000C94340080
:100030000C9434000C9434000C9434000C94340070
:100040000C9434000C9434000C9434000C94340060
:100050000C94340011241FBECFE5D4E0DEBFCDBF29
:100060000E9436000C9449000C9400001ABA80ECEF
:1000700084BB8FEF81BB84E687B986E886B986B1F9
:10008000806486B9349BFECF84B185BB85B182BBC9
:06009000F6CFF894FFCF4B
:00000001FF
