:100000000C942A000C9434000C9434000C943400AA
:100010000C9434000C9434000C9434000C94340090
:100020000C9434000C9434000C9434000C94340080
:100030000C9434000C9434000C9434000C94340070
:100040000C9434000C9434000C9434000C94340060
:100050000C94340011241FBECFE5D4E0DEBFCDBF29
:100060000E94E8000C94F3000C94000082E085BB31
:100070002FEF89E698E1215080409040E1F700C0E1
:10008000000083E085BB2FEF89E698E12150804096
:100090009040E1F700C0000081E085BB2FEF89E6CA
:1000A00098E1215080409040E1F700C0000081E8D5
:1000B00085BB2FEF89E698E1215080409040E1F721
:1000C00000C0000080E885BB2FEF89E698E1215051
:1000D00080409040E1F700C0000080EC85BB2FEF2E
:1000E00089E698E1215080409040E1F700C000008F
:1000F00080E485BB2FEF89E698E121508040904055
:10010000E1F700C0000082E485BB2FEF89E698E1AB
:10011000215080409040E1F700C00000089580E445
:1001200085BB2FEF89E698E1215080409040E1F7B0
:1001300000C0000080EC85BB2FEF89E698E12150DC
:1001400080409040E1F700C0000080E885BB2FEFC1
:1001500089E698E1215080409040E1F700C000001E
:1001600081E885BB2FEF89E698E1215080409040DF
:10017000E1F700C0000081E085BB2FEF89E698E140
:10018000215080409040E1F700C0000083E085BB33
:100190002FEF89E698E1215080409040E1F700C0C0
:1001A000000082E085BB2FEF89E698E12150804076
:1001B0009040E1F700C0000082E485BB2FEF89E6A4
:1001C00098E1215080409040E1F700C00000089580
:1001D00083EC84BB0E9436000E948F000E948F0037
:0A01E0000E943600F7CFF894FFCF1D
:00000001FF
