S01500004C4544205061747465726E2D322E73726563DD
S11300000C942A000C9434000C9434000C943400A6
S11300100C9434000C9434000C9434000C9434008C
S11300200C9434000C9434000C9434000C9434007C
S11300300C9434000C9434000C9434000C9434006C
S11300400C9434000C9434000C9434000C9434005C
S11300500C94340011241FBECFE5D4E0DEBFCDBF25
S11300600E9436000C947D000C9400008FEF84BB3A
S11300708ABB80E090E01CC021E030E0082E02C082
S1130080220F331F0A94E2F725BB20E830E0082E44
S113009002C0359527950A94E2F72BBB2FEF30E782
S11300A042E0215030404040E1F700C0000001969A
S11300B0883091050CF387E090E01CC021E030E02B
S11300C0082E02C0220F331F0A94E2F725BB20E852
S11300D030E0082E02C0359527950A94E2F72BBB31
S11300E02FEF30E742E0215030404040E1F700C0BC
S11100F000000197992314F7BCCFF894FFCFBA
S9030000FC
