S01A000054696D65725F496E74726F64756374696F6E2E73726563A8
S11300000C942A000C9434000C9434000C943400A6
S11300100C9434000C9434000C9434000C9434008C
S11300200C9434000C9434000C9434000C9434007C
S11300300C9434000C9434000C9434000C9434006C
S11300400C9434000C9434000C9434000C9434005C
S11300500C94340011241FBECFE5D4E0DEBFCDBF25
S11300600E9436000C943E000C94000081E183BF92
S113007088E087BB8FEF8CBF12BEFFCFF894FFCF11
S9030000FC
